:0400000508000000EF
:020000040800F2
:10000000000F00200180000851320108D5BF04080C
:1000100001B9050801B9050801B90508000000008B
:1000200000000000000000000000000001B9050809
:100030004D32010800000000ED2E010825C0040823
:1000400001B9050801B9050801B9050801B9050894
:1000500001B9050801B9050849E1040809E10408E6
:10006000C9E0040889E0040849E00408C1A40508BF
:10007000B1A40508A1A4050891A405087DA405085C
:1000800069A4050855A4050801B9050801B90508C2
:1000900001B9050801B9050801B9050809E0040816
:1000A000ED64040801B90508DD6404082D65040841
:1000B0001D65040801B90508C130010801B905082A
:1000C00001B9050801B9050801B9050801B9050814
:1000D00001B9050899C2040801B90508DDC1040881
:1000E000C9DF040801B905080D320108CD64040810
:1000F00001B90508BD640408FD64040841A40508AD
:1001000001B9050801B905080D65040801B905081C
:1001100021C1040801B9050825FE030811FE0308E2
:100120002DA4050819A4050805A40508F1A30508D0
:10013000DDA30508000000000000000001B905086B
:1001400001B9050801B9050801B90508CD6801081C
:10015000C9A30508B5A30508A1A3050865C004083F
:1001600001B9050801B9050801B9050801B9050873
:1001700001B9050801B9050801B90508000000002A
:100180000000000001B905080000000000000000A8
:1001900001B90508000000000000000001B90508D1
:1001A00000000000000000000000000001B9050888
:1001B00001B9050801B9050801B9050801B9050823
:0401C00001B9050874
:1001D000000000000000000000000000000000001F
:1001E000000000000000000000000000000000000F
:1001F00000000000000000000000000000000000FF
:1002000000000000000000000000000000000000EE
:1002100000000000000000000000000000000000DE
:1002200000000000000000000000000000000000CE
:1002300000000000000000000000000000000000BE
:1002400000000000000000000000000000000000AE
:10025000000000000000000000000000000000009E
:10026000000000000000000000000000000000008E
:10027000000000000000000000000000000000007E
:10028000000000000000000000000000000000006E
:10029000000000000000000000000000000000005E
:1002A000000000000000000000000000000000004E
:1002B000000000000000000000000000000000003E
:1002C000000000000000000000000000000000002E
:1002D000000000000000000000000000000000001E
:1002E000000000000000000000000000000000000E
:1002F00000000000000000000000000000000000FE
:1003000000000000000000000000000000000000ED
:1003100000000000000000000000000000000000DD
:1003200000000000000000000000000000000000CD
:1003300000000000000000000000000000000000BD
:1003400000000000000000000000000000000000AD
:10035000000000000000000000000000000000009D
:10036000000000000000000000000000000000008D
:10037000000000000000000000000000000000007D
:10038000000000000000000000000000000000006D
:10039000000000000000000000000000000000005D
:1003A000000000000000000000000000000000004D
:1003B0000000000000003FC0FF000000000000003F
:1003C000000000000000000000000000000000002D
:1003D000000000000000000000000000000000001D
:1003E000000000000000000000000000000000000D
:1003F00000000000000000000000000000000000FD
:1004000003FFC0FFF000000000000000000000003B
:1004100000000000000000000000000000000000DC
:1004200000000000000000000000000000000000CC
:1004300000000000000000000000000000000000BC
:1004400000000000000000000000000FFFC0FFFFE0
:10045000000000000000000000000000000000009C
:10046000000000000000000000000000000000008C
:10047000000000000000000000000000000000007C
:10048000000000000000000000000000000000006C
:10049000000000000000FF57C0F57FC00000000012
:1004A000000000000000000000000000000000004C
:1004B000000000000000000000000000000000003C
:1004C000000000000000000000000000000000002C
:1004D000000000000000000000000000000000001C
:1004E0000FFD57C0F557FC000000000000000000A1
:1004F00000000000000000000000000000000000FC
:1005000000000000000000000000000000000000EB
:1005100000000000000000000000000000000000DB
:100520000000000000000000000000FFD557C0F5EB
:1005300055FFC000000000000000000000000000A7
:1005400000000000000000000000000000000000AB
:10055000000000000000000000000000000000009B
:10056000000000000000000000000000000000008B
:1005700000000000000FFD5557C0F5555FFC00005E
:10058000000000000000000000000000000000006B
:10059000000000000000000000000000000000005B
:1005A000000000000000000000000000000000004B
:1005B000000000000000000000000000000000003B
:1005C000FFD55557C0F55555FFC00000000000008D
:1005D000000000000000000000000000000000001B
:1005E000000000000000000000000000000000000B
:1005F00000000000000000000000000000000000FB
:10060000000000000000000000000FFD555557C01D
:10061000F555555FFC0000000000000000000000E0
:1006200000000000000000000000000000000000CA
:1006300000000000000000000000000000000000BA
:1006400000000000000000000000000000000000AA
:1006500000000000003FD5555557C0F5555555FFD2
:10066000C0000000000000000000000000000000CA
:10067000000000000000000000000000000000007A
:10068000000000000000000000000000000000006A
:100690000000000000000000000000000000000357
:1006A000FD55555557C0F55555555FF000000000F4
:1006B000000000000000000000000000000000003A
:1006C000000000000000000000000000000000002A
:1006D000000000000000000000000000000000001A
:1006E000000000000000000000003FF55555555780
:1006F000C0F555555555FF000000000000000000F2
:1007000000000000000000000000000000000000E9
:1007100000000000000000000000000000000000D9
:1007200000000000000000000000000000000000C9
:100730000000000003FF5555555557C0F555555558
:10074000557FF000000000000000000000000000E5
:100750000000000000000000000000000000000099
:100760000000000000000000000000000000000089
:100770000000000000000000000000000000003F3A
:10078000F55555555557C0F55555555557FF00006A
:100790000000000000000000000000000000000059
:1007A0000000000000000000000000000000000049
:1007B0000000000000000000000000000000000039
:1007C00000000000000000000000FF555555555581
:1007D00057C0F555555555557FC000000000000025
:1007E0000000000000000000000000000000000009
:1007F00000000000000000000000000000000000F9
:1008000000000000000000000000000000000000E8
:100810000000000000F5555555555557C0F5555584
:1008200055555557F0000000000000000000000082
:1008300000000000000000000000000000000000B8
:1008400000000000000000000000000000000000A8
:100850000000000000000000000000000000000395
:10086000F5555555555557C0F5555555555555F0F0
:100870000000000000000000000000000000000078
:100880000000000000000000000000000000000068
:100890000000000000000000000000000000000058
:1008A0000000000000000000000003D5555555551C
:1008B0005557C0F5555555555555F00000000000E9
:1008C0000000000000000000000000000000000028
:1008D0000000000000000000000000000000000018
:1008E0000000000000000000000000000000000008
:1008F000000000000003D5555555555557C0F55516
:100900005555555555F0000000000000000000004E
:1009100000000000000000000000000000000000D7
:1009200000000000000000000000000000000000C7
:1009300000000000000000000000000000000000B7
:1009400003D5555555555557F3F5555555555555E9
:10095000F0000000000000000000000000000000A7
:100960000000000000000000000000000000000087
:100970000000000000000000000000000000000077
:1009800000000000000000000000003FD555555554
:10099000555557F3F5555555555555FF0000000071
:1009A0000000000000000000000000000000000047
:1009B0000000000000000000000000000000000037
:1009C0000000000000000000000000000000000027
:1009D00000000000000FFFD5555555555557F3F54C
:1009E0005555555555557FFC00000000000000008E
:1009F00000000000000000000000000000000000F7
:100A000000000000000000000000000000000000E6
:100A100000000000000000000000000000000003D3
:100A2000FFFF55555555555557F3F55555555555E2
:100A3000557FFFF0000000000000000000000000F3
:100A400000000000000000000000000000000000A6
:100A50000000000000000000000000000000000096
:100A6000000000000000000000003FFD57555555F4
:100A700055555557F3F5555555555555755FFF0067
:100A80000000000000000000000000000000000066
:100A90000000000000000000000000000000000056
:100AA0000000000000000000000000000000000046
:100AB000000000000FFF555755555555555557F334
:100AC000F555555555555575557FFC0000000000EE
:100AD0000000000000000000000000000000000016
:100AE0000000000000000000000000000000000006
:100AF000000000000000000000000000000000FFF7
:100B0000F5555755555555555555F3F555555555B5
:100B100055555D5557FFC000000000000000000063
:100B200000000000000000000000000000000000C5
:100B300000000000000000000000000000000000B5
:100B400000000000000000000003FD55555F5555F2
:100B50005555555555F3D55555555555555D55551F
:100B60005FF0000000000000000000000000000036
:100B70000000000000000000000000000000000075
:100B80000000000000000000000000000000000065
:100B9000000000000FD555555D5555555555555517
:100BA000F3D55555555555555D555555FC00000027
:100BB0000000000000000000000000000000000035
:100BC0000000000000000000000000000000000025
:100BD0000000000000000000000000000000003FD6
:100BE0005555555D55555555555555F3D55555558F
:100BF0005555555D5555557F00000000000000001B
:100C000000000000000000000000000000000000E4
:100C100000000000000000000000000000000000D4
:100C200000000000000000000000FD5555555D5516
:100C3000555555555555F3D55555555555555D553E
:100C400055555FC0000000000000000000000000DB
:100C50000000000000000000000000000000000094
:100C60000000000000000000000000000000000084
:100C7000000000000FF55555555F55555555555514
:100C800055F3D55555555555557D55555557FC007A
:100C90000000000000000000000000000000000054
:100CA0000000000000000000000000000000000044
:100CB0000000000000000000000000000000003FF5
:100CC000D555555557FD555555555555F3D555558C
:100CD00055555557F555555555FF00000000000076
:100CE0000000000000000000000000000000000004
:100CF00000000000000000000000000000000000F4
:100D000000000000000000000000FD55555555573B
:100D1000FFD55555555555F3D55555555555FFF5F1
:100D2000555555555FC00000000000000000000050
:100D300000000000000000000000000000000000B3
:100D400000000000000000000000000000000000A3
:100D50000000000003F55555555557FFFF555555F3
:100D60005555F3D5555555557FFFF555555555579F
:100D7000F000000000000000000000000000000083
:100D80000000000000000000000000000000000063
:100D90000000000000000000000000000000000F44
:100DA000D55555555557FFFFF555555555F3D5555F
:100DB000555557FFFFF55555555555FC000000009A
:100DC0000000000000000000000000000000000023
:100DD0000000000000000000000000000000000013
:100DE000000000000000000000003F55555555551B
:100DF00057FFFFFFD5555555F3D5555555FFFFFF07
:100E0000F555555555557FC0000000000000000005
:100E100000000000000000000000000000000000D2
:100E200000000000000000000000000000000000C2
:100E30000000000003FD555555555557FFFFFFFDB8
:100E4000555555F3D555555FFFFFFFF5555555558C
:100E5000555FF000000000000000000000000000EE
:100E60000000000000000000000000000000000082
:100E70000000000000000000000000000000000F63
:100E8000F55555555555557FFFFFFF555555F3D52C
:100E900055557FFFFFFF55555555555555FC0000DD
:100EA0000000000000000000000000000000000042
:100EB0000000000000000000000000000000000032
:100EC000000000000000000000000FD555555555EA
:100ED0005555557FFFFF555555F3D555557FFFFFA8
:100EE00055555555555555557C00000000000000DE
:100EF00000000000000000000000000000000000F2
:100F000000000000000000000000000000000000E1
:100F100000000000000F5555555555555555555F66
:100F2000FFD55555F3D55555FFFD555555555555D7
:100F30005555557C00000000000000000000000036
:100F400000000000000000000000000000000000A1
:100F50000000000000000000000000000000000091
:100F60000F55555555555FFFFFD5557FD55555F351
:100F7000D55555FF55557FFFFD55555555557C00A9
:100F80000000000000000000000000000000000061
:100F90000000000000000000000000000000000051
:100FA00000000000000000000000000FFFFF55558A
:100FB000FFFFFFD5FFF55FD55555F3D55555FF57C5
:100FC000FFD5FFFFFFD5557FFFFC000000000000AC
:100FD0000000000000000000000000000000000011
:100FE0000000000000000000000000000000000001
:100FF00000000000000003FFFFFFFFFFFFC3D55507
:101000005FDFD55555F3D55555FD7D5555F03FFF5F
:10101000FFFFFFFFF00000000000000000000000E4
:1010200000000000000000000000000000000000C0
:1010300000000000000000000000000000000000B0
:101040000000003FFFFFF00003F55555D7D555557B
:10105000F3D55555FDD55557F00003FFFFFF0000B0
:101060000000000000000000000000000000000080
:101070000000000000000000000000000000000070
:101080000000000000000000000000000000000060
:1010900000000000F55555F7F55555F3D55557F5B2
:1010A000D55557C0000000000000000000000000FF
:1010B0000000000000000000000000000000000030
:1010C0000000000000000000000000000000000020
:1010D000000000000000000000000000000000FD13
:1010E000555577F55555F3D55557F7D55557C00094
:1010F00000000000000000000000000000000000F0
:1011000000000000000000000000000000000000DF
:1011100000000000000000000000000000000000CF
:10112000000000000000000000003D55557FF5550F
:1011300055F3D55557F755555FC000000000000026
:10114000000000000000000000000000000000009F
:10115000000000000000000000000000000000008F
:10116000000000000000000000000000000000007F
:1011700000000000003D55557FF55555F3D55557F6
:10118000FF55555F00000000000000000000000057
:10119000000000000000000000000000000000004F
:1011A000000000000000000000000000000000003F
:1011B000000000000000000000000000000000002F
:1011C0003F55555FF55555F3D55557FF55557F009C
:1011D000000000000000000000000000000000000F
:1011E00000000000000000000000000000000000FF
:1011F00000000000000000000000000000000000EF
:1012000000000000000000000000000F55555FFDC9
:101210005555F3D55557FD55557C0000000000008D
:1012200000000000000000000000000000000000BE
:1012300000000000000000000000000000000000AE
:10124000000000000000000000000000000000009E
:101250000000000000000FD5555FFD5555F3D55532
:101260005FFD55557C0000000000000000000000FC
:10127000000000000000000000000000000000006E
:10128000000000000000000000000000000000005E
:10129000000000000000000000000000000000004E
:1012A0000003D55557FD5555F3D5555FFD5555FCF4
:1012B000000000000000000000000000000000002E
:1012C000000000000000000000000000000000001E
:1012D000000000000000000000000000000000000E
:1012E00000000000000000000000000003D555577A
:1012F000FD5555F3D5555FF55555F000000000003C
:1013000000000000000000000000000000000000DD
:1013100000000000000000000000000000000000CD
:1013200000000000000000000000000000000000BD
:101330000000000000000003F55557FD5555F3D59A
:10134000555FF55555F0000000000000000000005A
:10135000000000000000000000000000000000008D
:10136000000000000000000000000000000000007D
:10137000000000000000000000000000000000006D
:10138000000000F55555FF5555F3D5555FD5555718
:10139000F00000000000000000000000000000005D
:1013A000000000000000000000000000000000003D
:1013B000000000000000000000000000000000002D
:1013C0000000000000000000000000000000F555D3
:1013D00055FF5555F3D5557FD55557C00000000032
:1013E00000000000000000000000000000000000FD
:1013F00000000000000000000000000000000000ED
:1014000000000000000000000000000000000000DC
:10141000000000000000000000FD5555FF5555F389
:10142000D5557FD5555FC0000000000000000000CA
:1014300000000000000000000000000000000000AC
:10144000000000000000000000000000000000009C
:10145000000000000000000000000000000000008C
:10146000000000003D55557F5555FFD5557F55551A
:101470005F0000000000000000000000000000000D
:10148000000000000000000000000000000000005C
:10149000000000000000000000000000000000004C
:1014A0000000000000000000000000000000003DFF
:1014B00055557F55557F55557F55555F00000000A8
:1014C000000000000000000000000000000000001C
:1014D000000000000000000000000000000000000C
:1014E00000000000000000000000000000000000FC
:1014F000000000000000000000003F55557FD5555A
:101500007F55557F55557F0000000000000000000A
:1015100000000000000000000000000000000000CB
:1015200000000000000000000000000000000000BB
:1015300000000000000000000000000000000000AB
:1015400000000000000F55555FD5557F5555FD55DE
:10155000557C0000000000000000000000000000BA
:10156000000000000000000000000000000000007B
:10157000000000000000000000000000000000006B
:10158000000000000000000000000000000000005B
:101590000F55555FD5557F5555FD55557C000000BD
:1015A000000000000000000000000000000000003B
:1015B000000000000000000000000000000000002B
:1015C000000000000000000000000000000000001B
:1015D00000000000000000000000000FD5555FD59E
:1015E000557F5555FD5555FC0000000000000000DA
:1015F00000000000000000000000000000000000EB
:1016000000000000000000000000000000000000DA
:1016100000000000000000000000000000000000CA
:1016200000000000000003D55557D5557F5555F5EE
:101630005555F00000000000000000000000000010
:10164000000000000000000000000000000000009A
:10165000000000000000000000000000000000008A
:10166000000000000000000000000000000000007A
:101670000003D55557D5557F5555F55555F0000004
:10168000000000000000000000000000000000005A
:10169000000000000000000000000000000000004A
:1016A000000000000000000000000000000000003A
:1016B00000000000000000000000000003F5555786
:1016C000F5557F5557F55557F00000000000000014
:1016D000000000000000000000000000000000000A
:1016E00000000000000000000000000000000000FA
:1016F00000000000000000000000000000000000EA
:101700000000000000000000F55555F5557F5557C5
:10171000D55557C000000000000000000000000088
:1017200000000000000000000000000000000000B9
:1017300000000000000000000000000000000000A9
:101740000000000000000000000000000000000099
:10175000000000FD5555F5557F5557D55557C0002C
:101760000000000000000000000000000000000079
:101770000000000000000000000000000000000069
:101780000000000000000000000000000000000059
:1017900000000000000000000000000000003D55B7
:1017A0005575557F5557D5555FC0000000000000A6
:1017B0000000000000000000000000000000000029
:1017C0000000000000000000000000000000000019
:1017D0000000000000000000000000000000000009
:1017E0000000000000000000003D555575557F5574
:1017F0005755555F00000000000000000000000089
:1018000000000000000000000000000000000000D8
:1018100000000000000000000000000000000000C8
:1018200000000000000000000000000000000000B8
:10183000000000003F55557D557F555F55555F00B1
:101840000000000000000000000000000000000098
:101850000000000000000000000000000000000088
:101860000000000000000000000000000000000078
:101870000000000000000000000000000000000F59
:1018800055555D557F555D55557F000000000000A2
:101890000000000000000000000000000000000048
:1018A0000000000000000000000000000000000038
:1018B0000000000000000000000000000000000028
:1018C000000000000000000000000F55555D557F2E
:1018D000555D55557C000000000000000000000030
:1018E00000000000000000000000000000000000F8
:1018F00000000000000000000000000000000000E8
:1019000000000000000000000000000000000000D7
:1019100000000000000FD5555F557F557D55557C63
:1019200000000000000000000000000000000000B7
:1019300000000000000000000000000000000000A7
:101940000000000000000000000000000000000097
:101950000000000000000000000000000000000087
:1019600003D55557D57F55F55555FC0000000000AF
:101970000000000000000000000000000000000067
:101980000000000000000000000000000000000057
:101990000000000000000000000000000000000047
:1019A000000000000000000000000003D55557F5BE
:1019B0007F55F55555F000000000000000000000C4
:1019C0000000000000000000000000000000000017
:1019D0000000000000000000000000000000000007
:1019E00000000000000000000000000000000000F7
:1019F00000000000000003F55555F57F57D55557F9
:101A0000F0000000000000000000000000000000E6
:101A100000000000000000000000000000000000C6
:101A200000000000000000000000000000000000B6
:101A300000000000000000000000000000000000A6
:101A40000000F55555FD7F5FD55557C000000000DB
:101A50000000000000000000000000000000000086
:101A60000000000000000000000000000000000076
:101A70000000000000000000000000000000000066
:101A800000000000000000000000000000F55555B7
:101A90007F7F7F555557C000000000000000000008
:101AA0000000000000000000000000000000000036
:101AB0000000000000000000000000000000000026
:101AC0000000000000000000000000000000000016
:101AD0000000000000000000FD55557FFFFF555538
:101AE0005FC00000000000000000000000000000D7
:101AF00000000000000000000000000000000000E6
:101B000000000000000000000000000000000000D5
:101B100000000000000000000000000000000000C5
:101B20000000003D55555DFFDD55555F000000008C
:101B300000000000000000000000000000000000A5
:101B40000000000000000000000000000000000095
:101B50000000000000000000000000000000000085
:101B600000000000000000000000000000003D55E3
:101B7000555D7F5D55555F000000000000000000CE
:101B80000000000000000000000000000000000055
:101B90000000000000000000000000000000000045
:101BA0000000000000000000000000000000000035
:101BB0000000000000000000003F5555575D7D55B6
:101BC000557F000000000000000000000000000041
:101BD0000000000000000000000000000000000005
:101BE00000000000000000000000000000000000F5
:101BF00000000000000000000000000000000000E5
:101C0000000000000F555557557555557C000000D4
:101C100000000000000000000000000000000000C4
:101C200000000000000000000000000000000000B4
:101C300000000000000000000000000000000000A4
:101C40000000000000000000000000000000000F85
:101C5000555555D5F555557C000000000000000095
:101C60000000000000000000000000000000000074
:101C70000000000000000000000000000000000064
:101C80000000000000000000000000000000000054
:101C9000000000000000000000000FD55555D5D50C
:101CA0005555FC000000000000000000000000008E
:101CB0000000000000000000000000000000000024
:101CC0000000000000000000000000000000000014
:101CD0000000000000000000000000000000000004
:101CE000000000000003D55555D5D55555F000002E
:101CF00000000000000000000000000000000000E4
:101D000000000000000000000000000000000000D3
:101D100000000000000000000000000000000000C3
:101D200000000000000000000000000000000000B3
:101D300003F55555D5D55555F000000000000000BD
:101D40000000000000000000000000000000000093
:101D50000000000000000000000000000000000083
:101D60000000000000000000000000000000000073
:101D7000000000000000000000000000FD5555D5E7
:101D8000D5555FF0000000000000000000000000DA
:101D90000000000000000000000000000000000043
:101DA0000000000000000000000000000000000033
:101DB0000000000000000000000000000000000023
:101DC000000000000000003F5555D5D5557FC000EC
:101DD0000000000000000000000000000000000003
:101DE00000000000000000000000000000000000F3
:101DF00000000000000000000000000000000000E3
:101E000000000000000000000000000000000000D2
:101E100000000FD555F7D555FC000000000000006C
:101E200000000000000000000000000000000000B2
:101E300000000000000000000000000000000000A2
:101E40000000000000000000000000000000000092
:101E50000000000000000000000000000003FD552D
:101E600077555FF000000000000000000000000057
:101E70000000000000000000000000000000000062
:101E80000000000000000000000000000000000052
:101E90000000000000000000000000000000000042
:101EA000000000000000000000FF5577557FC000D3
:101EB0000000000000000000000000000000000022
:101EC0000000000000000000000000000000000012
:101ED0000000000000000000000000000000000002
:101EE00000000000000000000000000000000000F2
:101EF000000000000FD57755FC0000000000000036
:101F000000000000000000000000000000000000D1
:101F100000000000000000000000000000000000C1
:101F200000000000000000000000000000000000B1
:101F3000000000000000000000000000000000039E
:101F4000F57757F0000000000000000000000000DE
:101F50000000000000000000000000000000000081
:101F60000000000000000000000000000000000071
:101F70000000000000000000000000000000000061
:101F80000000000000000000000000FF777FC0009C
:101F90000000000000000000000000000000000041
:101FA0000000000000000000000000000000000031
:101FB0000000000000000000000000000000000021
:101FC0000000000000000000000000000000000011
:101FD0000000000000003FFFFF00000000000000C4
:101FE00000000000000000000000000000000000F1
:101FF00000000000000000000000000000000000E1
:1020000000000000000000000000000000000000D0
:1020100000000000000000000000000000000000C0
:102020000003FFF0000000000000000000000000BE
:1020300000000000000000000000000000000000A0
:102040000000000000000000000000000000000090
:102050000000000000000000000000000000000080
:1020600000000000000000000000000000FFC000B1
:102070000000000000000000000000000000000060
:102080000000000000000000000000000000000050
:102090000000000000000000000000000000000040
:1020A0000000000000000000000000000000000030
:1020B00000000000000000003F00000000000000E1
:1020C0000000000000000000000000000000000010
:1020D0000000000000000000000000000000000000
:1020E00000000000000000000000000000000000F0
:1020F00000000000000000000000000000000000E0
:1021000000000000000000000000000000000000CF
:1021100000000000000000000000000000000000BF
:1021200000000000000000000000000000000000AF
:10213000000000000000000000000000000000009F
:10214000000000000000000000000000000000008F
:10215000000000000000000000000000000000007F
:10216000000000000000000000000000000000006F
:10217000000000000000000000000000000000005F
:10218000000000000000000000000000000000004F
:10219000000000000000000000000000000000003F
:1021A000000000000000000000000000000000002F
:1021B000000000000000000000000000000000001F
:1021C000000000000000000000000000000000000F
:1021D00000000000000000000000000000000000FF
:1021E00000000000000000000000000000000000EF
:1021F00000000000000000000000000000000000DF
:1022000000000000000000000000000000000000CE
:102210000000000000000003FFFFFF3FFFFF003F42
:10222000FFC03FFC0FFF0005555500554000055508
:102230005000055400555155401554005551554115
:1022400055555055555415555400000000000000D8
:10225000000000000000000000000000000000007E
:10226000000003555557355557003555C0355C0DA1
:10227000570007FFFD407F400007FFD00057F540A3
:102280007FD1FF405FF5007FD1FF41FFFFD07FFF8F
:10229000F41FFFF500000000000000000000000037
:1022A0000000000000000000000000000003555581
:1022B00057355557003555C0355F3D570007FFFF6F
:1022C000407F400007FFD0017FFF407FD1FF417F6B
:1022D000FD407FD1FF41FFFFD07FFFF41FFFFD4096
:1022E00000000000000000000000000000000000EE
:1022F00000000000000000000355555735555700F9
:102300003555C0355735570007FFFF407F40000760
:10231000FFD001FFFF507FD5FD41FFFF507FD1FF70
:1023200041FFFFD07FFFF41FFFFF400000000000CF
:10233000000000000000000000000000000000009D
:1023400000000003FF57FF355FFF003555C03557CC
:1023500035570007FFFF407F400007FFD005FFFF14
:10236000D07FD7FD05FFFFD07FD1FF41FFFFD07F9A
:10237000FFF41FFFFF40000000000000000000000D
:10238000000000000000000000000000000000034A
:102390005700355C00003555C0355735570007F5F7
:1023A0007F407F400007FFD007FD5FD07FD7F50754
:1023B000FD7FD07FD1FF41FD55507FD5541FF5FFE4
:1023C00040000000000000000000000000000000CD
:1023D00000000000000000000000035700355C0012
:1023E000003555C0355735570007F47F407F400012
:1023F00007FFD007FD1FD07FDFF407FD7FD07FD11F
:10240000FF41FD00007FD0001FF5FF4000000000ED
:1024100000000000000000000000000000000000BC
:102420000000000000035700355C00003555C03542
:102430005735570007F47F407F400007FFD007FD66
:102440001FD07FDFD407FD55507FD1FF41FD000035
:102450007FD0001FF5FF40000000000000000000DA
:10246000000000000000000000000000000000006C
:10247000035700355C0000F555F03557F557000758
:10248000F57F407F400017FFD407FD1FD07FFFD0AE
:1024900005FF50007FD1FF41FD00007FD0001FF5F8
:1024A000FF400000000000000000000000000000ED
:1024B0000000000000000000000000035700355F2E
:1024C000FC00D555703555D5570007FFFF407F40BC
:1024D000001FFFF407FD15507FFF5001FFD4007F60
:1024E000D5FF41FD55407FD5501FF5FF400000004E
:1024F00000000000000000000000000000000000DC
:1025000000000000000003570035555C00D5F57051
:102510003555D5570007FFFD407F40001FD7F40712
:10252000FD00007FFF40017FF5007FFFFF41FFFFBF
:10253000407FFFD01FF5FF400000000000000000BA
:10254000000000000000000000000000000000008B
:102550000003570035555C00D5F5703575D7570029
:1025600007FFFD407F40001FD7F407FD00007FFFFD
:1025700050007FFD007FFFFF41FFFF407FFFD01F26
:10258000FFFF40000000000000000000000000000D
:1025900000000000000000000000000003570035AC
:1025A000555C00D5F5703575D7570007FFFF407FA4
:1025B00040001FD7F407FD00007FFFD0005FFD4003
:1025C0007FFFFF41FFFF407FFFD01FFFFD40000066
:1025D00000000000000000000000000000000000FB
:1025E00000000000000000035700355FFC00D5F537
:1025F000703575D7570007F57F407F40001FD7F42F
:1026000007FD15507FFFD00017FF507FD5FF41FD1C
:1026100055407FD5501FFFF500000000000000006E
:1026200000000000000000000000000000000000AA
:102630000000035700355C0003D5F57C357557570E
:102640000007F47F407F40005FD7F507FD1FD07F74
:10265000FFD40555FFD07FD1FF41FD00007FD000A2
:102660001FF5540000000000000000000000000002
:102670000000000000000000000000000003570000
:10268000355C000355555C357557570007F47F409E
:102690007F40007FFFFD07FD1FD07FDFF407FD7F38
:1026A000D07FD1FF41FD00007FD0001FF40000006B
:1026B000000000000000000000000000000000001A
:1026C0000000000000000000035700355C000355C7
:1026D000555C357D5F570007F47F407F40007FFFEA
:1026E000FD07FD1FD07FDFF407FD7FD07FD1FF41C5
:1026F000FD00007FD0001FF400000000000000007B
:1027000000000000000000000000000000000000C9
:10271000000000035700355C000355555C357D5FB4
:10272000570007F57F407F40007FFFFD07FD5FD02A
:102730007FD7F507FD7FD07FD1FF41FD55507FD575
:10274000541FF40000000000000000000000000022
:10275000000000000000000000000000000003571F
:1027600000355FFF0357FD5C357D5F570007FFFFB6
:10277000407F55507F55FD05FFFFD07FD7FD07FFF8
:10278000FFD07FD1FF41FFFFD07FFFF41FF4000097
:102790000000000000000000000000000000000039
:1027A00000000000000000000003570035555703EB
:1027B000570D5C357D5F570007FFFF407FFFD07FDF
:1027C00041FD01FFFFD07FD5FD45FFFF507FD1FFC9
:1027D00041FFFFD07FFFF41FF40000000000000065
:1027E00000000000000000000000000000000000E9
:1027F0000000000003570035555703570D5C357F27
:102800007F570007FFFD407FFFD07F41FD017FFF25
:10281000507FD1FF41FFFF407FD1FF41FFFFD07FBD
:10282000FFF41FF4000000000000000000000000A2
:102830000000000000000000000000000000000395
:10284000570035555703570D5C357373570007FF15
:10285000D5007FFFD07F41FD005FF5407FD1FF4174
:102860005FF5407FD1FF41FFFFD07FFFF41FF400F1
:102870000000000000000000000000000000000058
:102880000000000000000000000003FF003FFFFF09
:1028900003FF0FFC3FF3F3FF000555500055555063
:1028A000554155001554005551554015540055518A
:1028B0005541555550555554155400000000000021
:1028C0000000000000000000000000000000000008
:1028D00000000000000000000000000000000000F8
:1028E00000000000000000000000000000000000E8
:1028F00000000000000000000000000000000000D8
:1029000000000000000000000000000000000000C7
:1029100000000000000000000000000000000000B7
:1029200000000000000000000000000000000000A7
:102930000000000000000000000000000000000097
:102940000000000000000000000000000000000087
:102950000000000000000000000000000000000077
:102960000000000000000000000000000000000067
:102970000000000000000000000000000000000057
:102980000000000000000000000000000000000047
:102990000000000000000000000000000000000037
:1029A0000000000000000000000000000000000027
:1029B0000000000000000000000000000000000017
:1029C0000000000000000000000000000000000007
:1029D00000000000000000000000000000000000F7
:1029E00000000000000000000000000000000000E7
:1029F00000000000000000000000000000000000D7
:102A000000000000000000000000000000000000C6
:102A100000000000000000000000000000000000B6
:102A200000000000000000000000000000000000A6
:102A30000000000000000000000000000000000096
:102A40000000000000000000000000000000000086
:102A500000000000000000000000000FFF0FFFC397
:102A6000FFF0FF0FFFC3FFFC3FFC000FFFF3FFF081
:102A7000FFFF0FFF0000000000000000000000004A
:102A80000000000000000000000000000000000046
:102A90000000000000000000000000000000000036
:102AA0000000000000003D57CD55C3557CD73D5573
:102AB000F35F5CF55F000D557F557CD7D73D57C060
:102AC0000000000000000000000000000000000006
:102AD00000000000000000000000000000000000F6
:102AE00000000000000000000000000000000000E6
:102AF000003555CD55C3555CD73555735F5CD557FB
:102B0000000D557D555CD7D73555C000000000003D
:102B100000000000000000000000000000000000B5
:102B200000000000000000000000000000000000A5
:102B300000000000000000000000000035F5CD7F1F
:102B4000C35F5CD735FD735F5CD7D7000FD7FD7FC0
:102B50005CD7D735F5C00000000000000000000081
:102B60000000000000000000000000000000000065
:102B70000000000000000000000000000000000055
:102B80000000000000000035F5CD70035F5CD73514
:102B9000CD735F5CD7D70000D70D735CD7D735F501
:102BA000C000000000000000000000000000000065
:102BB0000000000000000000000000000000000015
:102BC0000000000000000000000000000000000005
:102BD0000000357FCD7FC35F5CD735CD735F5CD59B
:102BE000FF0000D70D735CD7D7357FC00000000011
:102BF00000000000000000000000000000000000D5
:102C000000000000000000000000000000000000C4
:102C1000000000000000000000000000003D5F0D0B
:102C200055C35D5CD735CD735F5CF57C0000D70D77
:102C3000735CF55F3D5F00000000000000000000D5
:102C40000000000000000000000000000000000084
:102C50000000000000000000000000000000000074
:102C600000000000000000000F57CD55C3557CD771
:102C700035CD735F5C3D5F0000D70D735C3D7C0F0D
:102C800057C000000000000000000000000000002D
:102C90000000000000000000000000000000000034
:102CA0000000000000000000000000000000000024
:102CB00000000003D5CD7FC3555CD735CD735F5C75
:102CC0000F570000D70D735C0D7003D5C0000000D6
:102CD00000000000000000000000000000000000F4
:102CE00000000000000000000000000000000000E4
:102CF00000000000000000000000000000003FF5A0
:102D0000CD70035F5CD735CD735F5CFFD70000D714
:102D10000D735C0D703FF5C0000000000000000066
:102D200000000000000000000000000000000000A3
:102D30000000000000000000000000000000000093
:102D400000000000000000000035F5CD70035F5C5E
:102D5000D735CD735F5CD7D70000D70D735C0D708E
:102D600035F5C00000000000000000000000000079
:102D70000000000000000000000000000000000053
:102D80000000000000000000000000000000000043
:102D90000000000035F5CD7FC35F5CD735FD735F64
:102DA0005CD7D70000D70D7F5C0D7035F5C00000F3
:102DB0000000000000000000000000000000000013
:102DC0000000000000000000000000000000000003
:102DD00000000000000000000000000000000035BE
:102DE00055CD55C35F5CD7355573555CD55700003D
:102DF000D70D555C0D703555C00000000000000077
:102E000000000000000000000000000000000000C2
:102E100000000000000000000000000000000000B2
:102E2000000000000000000000003D57CD55C35FCA
:102E30005CD73D55F3D57CF55F0000D70F557C0D71
:102E4000703D57C0000000000000000000000000BE
:102E50000000000000000000000000000000000072
:102E60000000000000000000000000000000000062
:102E700000000000000FFF0FFFC3FFFCFF0FFFC0AB
:102E8000FFF03FFC0000FF03FFF00FF00FFF00001A
:102E90000000000000000000000000000000000032
:102EA0000000000000000000000000000000000022
:102EB0000000000000000000000000000000000012
:102EC0000000000000000000000000000000000002
:1080000050F05AFF50F088FF72B6374880F3098865
:1080100040F20000CCF200004EF63471CEF20001C6
:108020000860BFF34F8FBFF36F8F40F20000C0F2C4
:10803000F0004EF68851CEF200010860BFF34F8F7A
:10804000BFF36F8F4FF00000E1EE100A4EF63C7167
:10805000CEF200010860062080F31488BFF36F8F12
:108060000BF0BEF850F07CFA4FF055301F49204A13
:1080700091423CBF41F8040BFAE71E491A4A91426B
:108080003CBF41F8040BFAE71B491C4A1C4B9A42BF
:108090003EBF51F8040B42F8040BF8E700201949E1
:1080A000194A91423CBF41F8040BFAE70BF060F823
:1080B0000BF094F8154C164DAC4203DA54F8041B3F
:1080C0008847F9E753F024FC124C134DAC4203DA15
:1080D00054F8041B8847F9E70BF07EB80F48D0F836
:1080E00000D040680047000000130020000000207E
:1080F000000F0020000F002010AC07080013002024
:10810000202F0020202F0020F436012000800008BE
:108110000080000800800008008000080000FF1FA9
:108120002DE9F74F724D2C68AA88C2EB2413520038
:10813000C2EBE402B5F906405B436243B5F908407F
:108140001B135C43A41304EBE224B4F5FA3E894606
:10815000AEFB0E12CDE900124FEAE473019AEC6116
:1081600043F1FF3C0EFB0CF302EB4303B5F90C208B
:10817000019312B2D31702FB0CF10EFB0311A2FB09
:108180000E230B44190341EA125180461003B5F93E
:108190000E20019E12B202FB06FA009ED31706FBC8
:1081A00003AAA2FB062353444FEA122A4AEA036AAF
:1081B0006A894FEA232B1AEB00004BEB010B92B2BA
:1081C00000304BF5004BA0FB020102FB0B114A10E3
:1081D000CB1752EA030100F08980B5F91400019E23
:1081E00000B200FB06F7009EC11706FB0177A0FB5B
:1081F00006ABB5F91260296A36B2BB4406FB0CFC2B
:10820000F7170EFB07CCA6FB0E67C1F5801167447C
:108210004FEA464E4FEA474CCF171EEB0A004CEA96
:10822000D63CB5F910A04FEAC7764FEAC17E46EAC0
:1082300051064FF000014CEB0B0C4FEACA0709182E
:1082400047EB0C0CBEEB010140F6354766EB0C0624
:10825000A1FB070107FB061153F07AF9B5F91A20C3
:108260004E1312B2470B47EAC14702FB06FCD31775
:1082700007FB03CCA2FB07236344564307FB0366BB
:10828000A2FB07233344560EB5F9182046EAC3165D
:10829000361812B24FEA636741EB0707D317514311
:1082A00000FB0311A2FB00230B44D10C41EA433134
:1082B000D814761840EB0707B5F91600320A00B259
:1082C00042EA076203011344B8F1000F02D01B0A0F
:1082D000C8F80030B9F1000F05D004EB84048034F5
:1082E0002412C9F8004003B0BDE8F08F0023EBE78B
:1082F000202F00200D4B93F8252093F82410120115
:1083000042EA013293F8261042EA11121A6293F8F7
:10831000282093F82710120142EA013293F829101D
:1083200042EA11121A600120704700BF202F00207E
:108330000120704701207047704700BF70B40A4E9B
:1083400006F154050FCD06F12C040FC40FCD0FC458
:1083500095E8030084E8030096F8E43086F8DE3000
:10836000002070BC704700BF202F002070B40A4E60
:1083700006F12C050FCD06F154040FC40FCD0FC428
:1083800095E8030084E8030096F8DE3086F8E430D0
:10839000002070BC704700BF202F00202DE9F04165
:1083A0005D1C069F10F905C041FA07F842FA07F66E
:1083B0008CEA080E0EEA060E8CEA0E0C00F805C0D8
:1083C000C55CC6F3072406F47F4604EA182425EAB0
:1083D00016252543C5547FB10233C7F11004C55C8F
:1083E000A240A140C2F3072402F47F4204EA112113
:1083F00025EA12220A43C254BDE8F0812DE9F04F6C
:1084000083B000289DF830707DDB4F4C24682588B0
:10841000854278DB002976DB64888C4273DB02447A
:10842000954270DBCD18AC426DDB3C0144EA871409
:1084300001EB41053C4302F0030C00F003019210F4
:1084400044EA87046E014900B2EBA00F64B206EB68
:10845000A00501F101014FEA4C0C4FEAA00755D0ED
:10846000C1F10701CCF1060C4FF0010909FA01F046
:1084700009FA0CF903EB430100F1FF3BC9F1000AD3
:10848000C0F1000CB31804EA0B0B4E0104EA0A0A0F
:1084900009F1FF39D21B2D4801964FFA8BFB4FFA99
:1084A0008CFC4FFA8AFA4FFA89F905EB41112E46F6
:1084B0009046D0F8E870BA5D0CEA02024BEA02027C
:1084C000BA5508EB060ED0F8E82012F80E706036A8
:1084D00009EA07074AEA0707B14202F80E70E8D135
:1084E000019A1A44E4B2013516469D422A4605DA3D
:1084F000D0F8E8108C5401329A42F9D16033B3427B
:1085000005F16005F1D103B0BDE8F08FC1F10702BC
:10851000CCF1070C012101FA02F201FA0CF1013A47
:10852000013903EB43034A40084805EB431753B2B4
:10853000D0F8E860725784EA020119404A40725547
:108540006035BD42F4D1DEE700130020202F00206B
:1085500000283FDBF0B4264C24682588854237DBB1
:10856000002940DB6488A142A8BF2146002A32DBF3
:10857000A242A8BF22468A4230DAC5431E0146EA1B
:10858000831605F003051E436D004FF0030C02EB4C
:10859000420401EB410746EA83060CFA05F5640143
:1085A0007F018A4204EBA004EBB2F6B207EBA00015
:1085B0000EDCE94303EA06050E4E49B26DB2D6F869
:1085C000E820135D0B402B4313556034A042F6DACC
:1085D000F0BC7047704700228A42CEDBF8D01446C8
:1085E0000A462146C9E7002AF2DB64880021BFE77A
:1085F00000130020202F0020002A59DB2DE9F04134
:108600003D4C24686588954250DB002859DB24885E
:10861000A042A8BF204600294BDBA142A8BF2146AB
:10862000814249DA1D0145EA83151D43861002EB9C
:10863000420201F0030445EA830300F003075201FC
:108640006400B6EBA10F5DB204F1010002EBA103DF
:108650004FEA47073AD0294CD4F8E8C00121C0F1CD
:1086600007001CF803E001FA00F0C0F1000801382F
:1086700028400EEA080E4EEA00000CF803003244CF
:10868000D4F8E860C7F10607B05CB9404F1E494214
:1086900038402940013301439A42B15406DDEDB21E
:1086A000D4F8E810CD5401339A42F9D1BDE8F081F5
:1086B000704700218142B5DBF8D00C4601462046C8
:1086C000B0E70029F2DB24880020A6E70B4AD2F8A5
:1086D000E840C7F10707C0F107020120E15600FAA0
:1086E00002F2B840013A013842404D402A404A4027
:1086F000E254BDE8F08100BF00130020202F0020CD
:10870000002826DB134B1B6870B41C8884421EDBD8
:1087100000291CDB5B888B4219DB0F4B01EB41010D
:108720004901D3F8E85001EBA0011301C04300F068
:10873000030043EA82136E5C400003241343844029
:1087400043EA8200204026EA04042043685470BCB7
:108750007047704700130020202F00202DE9F047BC
:1087600084B08842DDF830A005460C4616461F4608
:1087700001DD0D460446012306F1FF39681C611E28
:1087800006EB03084A4603900191FFF735FF019974
:1087900003980291424601230190FFF72DFFDDE986
:1087A000010103233246FFF727FF022F05D0BAF15C
:1087B000020F14D004B0BDE8F087012249462846D4
:1087C000FFF79EFF012231462846FFF799FF284612
:1087D00001224146FFF794FFBAF1020FEAD1494660
:1087E00020460122FFF78CFF314620460122FFF789
:1087F00087FF41462046012204B0BDE8F0477FE7ED
:108800002DE9F04F8A46591A002989B0144694463A
:10881000A2EB000281460846B8BF4842002AB8BF12
:1088200052429DF848109DF84C60904207EE901A15
:108830008646934604DD4A469C46D14623469246E8
:10884000E1457ADCACEB090202EBD2770292A3EBB2
:108850000A02002AB8BF52429A45B4BF01234FF022
:10886000FF33E1454FEA67070192039362DA09F1AA
:1088700001085546CDF81490CDF818A04446DA46C4
:108880000497F146E346CDF81C801AE04146FFF715
:1088900037FF4146681CFFF733FFA11E2846FFF74C
:1088A0002FFF21462846A046FFF72AFF019BFF1A0B
:1088B00004F1010403D5039B1D44029B1F44D845CA
:1088C00018DAD14505F1FF302946324604F1FF3868
:1088D000DCDCA01EFFF714FF29462046FFF710FF3F
:1088E000691E4046FFF70CFF4046691CA046FFF793
:1088F00007FFDBE74D465646DDE90470019CDDF8D5
:108900001890DDF81C8017EE90AA01E008F101082C
:10891000B54249465246CABF014652464846FFF74D
:10892000EFFE3F1B404603D5039B9944029B1F4427
:10893000D845EBDB09B0BDE8F08FA9EB0C0202EBE8
:10894000D2770292AAEB0302002AB8BF52429A459C
:1089500001924FEA67074A469A4604DD0123E14641
:108960000393944683E74FF0FF33E1460393944625
:108970007DE700BF2DE9F04FA3EB0108A2EB000952
:10898000B8F1000FB8BFC8F10008B9F1000FB8BFC7
:10899000C9F10009C84583B004468B4617469A467C
:1089A00003DD5C461F4692468346BC422ADCAAEBA6
:1089B0000B06002EA7EB0403B8BF764203EBD3757A
:1089C000D345B4BF4FF0010A4FF0FF3ABC420193C8
:1089D0004FEA650513DAC84521464FF000025846B4
:1089E000DEBF002220465946FFF78AFEAD1B04F188
:1089F000010402D5019BD3441D44BC42EBDB03B010
:108A0000BDE8F08FABEB0A06E31B002E03EBD3753A
:108A1000B8BF7642D345224601934FEA6505D34657
:108A20003C4603DD4FF0010A1746D4E74FF0FF3A0A
:108A30001746D0E7194A1A49B2F8EC3001331BB295
:108A40000420002BA2F8EC30486126DB1549496868
:108A50000888834221DAF0B4134CA3689B061AD429
:108A6000124B134F1D68D2F8F00025F001051D6070
:108A7000FE68D2F8F45046F03D560544FE60DD60D5
:108A800049795960013921611968603041F001016B
:108A9000C2F8F0001960F0BC70477047202F00202A
:108AA000003C014000130020001000A0B864024008
:108AB0000064024000230373704700BF437F002B14
:108AC0007BD02DE9F0473D4A817F126890F9205014
:108AD00014885788C27F661C0D44C5EB5605ADB29D
:108AE000AC4290F9214007F1010004EB5004A4EBE3
:108AF0000204A4B236BF00262E463546A7423ABF2E
:108B000000273C46274605EB410504EB4204012BB8
:108B1000ADB2A4B238D006F10A09A5F10A08494657
:108B20003A4630460323FFF767FD40463A4629465A
:108B30000323FFF761FD4946224630460323FFF732
:108B40005BFD07F10A094046224629460323FFF749
:108B500053FDA4F10A084A46394630460323FFF77D
:108B6000F7FC3046414622460323FFF7F1FC4A4614
:108B7000394628460323FFF7EBFC414622462846A8
:108B80000323BDE8F047E3E43A4629463046032391
:108B9000FFF732FD2246294630460323FFF72CFD1E
:108BA0003046224639460323FFF7D2FC2246394697
:108BB00028460323BDE8F047CAE4704700130020AD
:108BC0002DE9F04F85B01C460123814688461546A5
:108BD00000930139143802232822CDE90254FFF70B
:108BE0000DFCA9F10203012207EE103A0092A8F150
:108BF000140109F1FF3028230222FFF7FFFBA8F13F
:108C00000204A9F1150617EE101A30462246032376
:108C100007EE906AFFF7F0FC08F1020517EE101A54
:108C200017EE900A09F1020609F115072A460323F7
:108C3000FFF7E2FC2246304639460323FFF7DCFC0F
:108C40002A46394630460323FFF7D6FCA8F1150B18
:108C500017EE100A31465A460323FFF7CDFC08F100
:108C6000150A17EE100A314652460323FFF7C4FCDB
:108C70005A4617EE100A21460323FFF769FC5A46AD
:108C8000214630460323FFF763FC2A4617EE100AFD
:108C900051460323FFF75CFC514630462A46032326
:108CA000FFF756FC2A4617EE900A21460323FFF7EA
:108CB0004FFC2A46214638460323FFF749FC029B16
:108CC0002849DFED295A01220092A3F2DC52039BCE
:108CD0008A42A3F2DC53B8BF0A468B42B8BF0B46A8
:108CE000B2F5FA7FA8BF4FF4FA7202EBC200B3F5F7
:108CF000FA7FA8BF4FF4FA7302EB400207EE902A06
:108D000003EBC30103EB4103B8EEE76A07EE103A49
:108D100007EE909AF8EEC76AF8EEE77A07EE108A47
:108D2000E6EE257A06231A46B8EEC77AFDEEE77A14
:108D3000A6EEE57A17EE901ABDEEC77A0CB217EEE2
:108D4000101A0DB2E01EE91EFFF758FB04230322A0
:108D50000092A91EA01E1A46FFF750FB05B0BDE801
:108D6000F08F00BF0CFEFFFF6F12033B1E4B70B570
:108D70001C682388628884B0013300255B100132AF
:108D80000646D91EA3F10A0052082B460095FFF7AC
:108D9000E5FC20886288009501304010013200F126
:108DA0000B012B4604305208FFF7D8FC6288248858
:108DB0000132013464105210D11F601E043A0123A5
:108DC000CDE90212FFF7C4FBDDE90212601C0123AA
:108DD000FFF7BEFBDDE9021220460323FFF7B8FBD5
:108DE000357304B070BD00BF00130020F0B5866974
:108DF00083B0044616B13368B2885A836069294A41
:108E0000838907274FF47A7369464FF6FF7C002A5F
:108E100046D012F8015BB0F808E0013B1EF0020FEB
:108E20009BB237D0ADB285814FF47A73B0F808E0C9
:108E30001EF0010F03F1FF3525D08589ADB209B1D0
:108E400001F8015B013FE2D116B13368B2881A83A1
:108E50009DF806009DF802609DF801109DF80450F1
:108E60009DF803209DF8053041EA062143EA0023DE
:108E700042EA05220120A4F84410A4F84620A4F8F0
:108E8000483003B0F0BDABB26345CFD145F010FA26
:108E9000A669D9E76345BED145F00AFAA669D3E7CA
:108EA000FF25B8E770EF0508F0B5466983B00446C2
:108EB00016B13368B2885A832069284A8389072704
:108EC0004FF47A7369464FF6FF7C002A43D012F8BC
:108ED000015BB0F808E0013B1EF0020F9BB234D0FA
:108EE000ADB285814FF47A73B0F808E01EF0010F3F
:108EF00003F1FF3522D08589ADB209B101F8015BDC
:108F0000013FE2D116B13368B2881A839DF806009A
:108F10009DF802609DF801109DF804509DF8032013
:108F20009DF8053041EA062143EA002342EA052282
:108F300001206183A283E38303B0F0BDABB263453C
:108F4000D2D145F0B5F96669DCE76345C1D145F09A
:108F5000AFF96669D6E7FF25BBE700BF78EF0508E4
:108F600058B183884FF00042B3FA83F332FA03F327
:108F700003D002490A6813430B607047003C01406C
:108F800038B54B4C42F04AFFD4F8F83042F20F7239
:108F9000C31A93424ED9B4F8EC30C4F8F8005A1E04
:108FA0000021E42A84F8FC1000D838BD414D6A68DD
:108FB000127913449BB2B3F5967F2CD994F90831FA
:108FC0000222934205D084F808213B4B2B600433E6
:108FD0006B60B4F80A31013301229BB293422A72CA
:108FE00052D9D4F8F410D4F8E830C4F8F4300022A0
:108FF000A4F80A21C4F8E81072B6D4F814319342E8
:1090000045DD62B66B681B7900225B42A4F8EC3048
:10901000C4F8F02038BD95F9083094F908219A4237
:10902000D7D0012B84F80831CFD1244B2B600433E7
:109030006B60CEE794F8FC300133DBB2092B84F887
:10904000FC30B2D9D4F8003163B19B884FF00042B4
:10905000B3FA83F332FA03F304D019490A6822EA17
:1090600003030B60D4F80431002B9ED09B884FF093
:109070000042B3FA83F332FA03F396D010490A6838
:1090800022EA03030B6038BDA4F80A31BAE70133C2
:10909000012BC4F81431B4D0D4F80C010949036889
:1090A000C4F80C315960826209F014FEA9E700BFD0
:1090B000202F0020001300208CEF050880EF05080A
:1090C000003C01402C300020002800F089802DE970
:1090D000F0431C468388B3FA83F3202B154683B0F4
:1090E0008146C3F11F0271D03E4F3F4EBB1806EBC5
:1090F00082028C46C2F818C1002193F8288044F0FF
:109100004BFDB9F80420D9F800303849B2FA82F2A0
:10911000C2F11F0000F0FC0C0CF1804C0CF59C3CE3
:1091200000F003004FEA800E4FF00F0903F13F40BB
:10913000DCF8083009FA0EF923EA0903CCF8083004
:1091400000F57E00DCF80830C0F387204FF00049BE
:1091500000FA0EF029FA02F21843CCF808004A612E
:109160000B6823EA02030B604B6823EA02034B609F
:109170000B6813430B608B6807EB840423EA02033C
:109180008B60CB6894F8380023EA02031028CB6088
:109190001FD000F1804000F59E3003681A43026042
:1091A000464496F85831AB4210DD4744AA1197F86F
:1091B00044308DF8043001A84FF4807386F858517C
:1091C0008DF80520ADF806300DF02EFA03B0BDE89D
:1091D000F0838B6813438B60CB681A43CA60DFE768
:1091E000704700BF70EF0508202F0020003C0140B1
:1091F00010B56B4A0368934282B000F09480A2F5E8
:109200008062934200F08F8002F58042934200F02A
:10921000A08002F58062934200F09B8002F580629C
:10922000934200F096801A88B3F1804F92B20DD02D
:109230005C498B420AD001F580618B4206D001F572
:1092400080618B424FF0590001D003E0592022F099
:10925000700292B254498B4269D001F580618B4211
:1092600071D022F4407201F56C4192B24FF6FF7456
:109270008B421A80DC6218856FD100221A86012287
:109280009A821A88494992B242F001028B421A80AE
:109290006ED0B3F1804F6DD0424A93426CD002F54C
:1092A000806293426AD002F58062934268D002F5F0
:1092B0008062934266D002F58062934264D002F5E8
:1092C0007042934262D002F57052934260D002F530
:1092D000806293425ED002F5806293425CD0A2F538
:1092E000983293425AD002F58062934214D002F52C
:1092F0008062934208BF0D220FD0002101224FF45B
:10930000807301A88DF804108DF80520ADF80630A3
:109310000DF08AF902B010BD0C22254B03EBC203FD
:1093200093F85110EAE71A88B32092B28FE701212F
:109330004FF6FF741A80DC62188599821A8892B2FF
:109340000A431A80A8E74FF6FF711A80D962188580
:1093500095E71A88B32092B27CE7114A93428CD0E9
:1093600001229A821A8892B242F001021A8090E792
:109370000022D2E70122D0E70222CEE70322CCE787
:109380000422CAE70522C8E70622C6E70722C4E787
:109390000822C2E70922C0E70A22BEE70B22BCE787
:1093A00000040140000400400010004000000140A3
:1093B00070EF05082DE9F04FD54DD64E86468C4608
:1093C00017460FCD06F5B0742DED068B0FC40FCDEB
:1093D0000FC495E807008BB096F89631039784E8A0
:1093E0000700CDE906EC042B00F27181DFE813F0F1
:1093F000F7016F016A01050007029FEDC78ADFEDE3
:10940000C78AC749C6F87C11C649C74BC74AC6F8C0
:1094100078110399002918BF134638EE887AF5EEC3
:10942000006A86EE87AAC24FC6F88431A7F11503F9
:10943000029307F1C0094FF00008DFEDBE7A9FEDFF
:10944000BE9A28EE278AF0EE679A079B434500F004
:109450003381029B13F8014B029308F1010B5FFA71
:109460008BF3002C00F0CE81002203E00132152A9C
:1094700000F0C88102EB4201550019F80100A0423A
:10948000F4D13144049391F87112002900F0C281A3
:1094900020463DF0D1F902680592824610463DF023
:1094A000B7F99AF805103DF00DFA90F800E0BEF11A
:1094B000000F40F0A781701925090321013D049B8D
:1094C000059A80F8B1328D4280F8B01204F00F0C8A
:1094D00000F26F81994C04EB4500B0F8E80040FAC7
:1094E0000CFE1EF0010E00F06481012202FA0CFC59
:1094F0000CF1FF3C0CEA00002544049352F078F88C
:1095000095F8F050DFF860C2049B28440CEBC005CE
:109510000321EB71A9715CF830007D6100F13F43DC
:1095200003F57E0304EB9324012294F8F4309AF8B7
:10953000081003F01F045B09032B02FA04F200F089
:109540003F81042B00F04681022B00F03E81AB8866
:109550000893B3FA83F3C3F11F03C3F3CC0200EB08
:10956000820203F00703146A9B000F259D4024EA42
:1095700005041462146A01FA03F32343136208A971
:10958000022309930DF0B4FCDAF80020039B002BB2
:1095900000F0EC80B6F8943100EE103AB8EEC00A54
:1095A000674BFCEEC07A9A4217EE901A00F0948056
:1095B000644B9A4200F09080634B9A4200F08C809A
:1095C000624B9A4200F088806148624C624D4FF6CF
:1095D000FF73824218BF2C460398B4FBF1F21A4481
:1095E000120CB4FBF2F200287FD1194696F89601CE
:1095F000042800F0828007EE902AF8EEE76A26EE53
:10960000887A69EE477A96F8970106990091E8EE14
:10961000A67A01905146384687ED027AC7ED037A63
:1096200036F0E8F8B8F1000F40F3C6807B68D6F852
:10963000B421934200F0C280B8F1010F00F0BC8069
:10964000D6F8CC21934200F0B980B8F1020F00F0B7
:10965000B380D6F8E421934200F0B080B8F1030F54
:1096600000F0AA80D6F8FC21934200F0A780B8F160
:10967000040F00F0A180D6F81422934200F09E80DF
:10968000B8F1050F00F09880D6F82C22934200F034
:109690009580B8F1060F00F08F80D6F84422D31AD7
:1096A00018BF01230122BBF1080F3B747A74D8461E
:1096B00007F118077FF4C9AE28480BB0BDEC068B44
:1096C000BDE8F08F9FED268AF0EE488A99E69FED7F
:1096D000258AF0EE488A94E61E4AB2FBF1F303F5C0
:1096E0007F43FF331B0CB2FBF3F296F89601B2FBFB
:1096F000F1F104288BB27FF47EAF07EE901AB8EE3A
:10970000E77A07EE902A27EE297AF8EEE76A78E7FB
:109710002CF00508202F0020ACC5A737ACC5A73614
:109720007DCB03086DC80408A9C6030861C80408F6
:10973000D03000206F12833A00007A4470EF0508A1
:10974000000401400000014000400140004401408D
:10975000004801400095BA0A804A5D05803000202B
:10976000282930386F120339FC310020B0EE4A0A44
:10977000049252F00DFE284B049AFCEEC07A9A42F5
:1097800017EE901A09D0254B9A4206D0244B9A42E4
:1097900003D0244B9A427FF417AF4FF6FF70224C50
:1097A000B4FBF1F20244120C03460146B4FBF2F2A0
:1097B0001CE7C7F814E0E9E6012373E7002371E72B
:1097C0001A4B1C6C22431A64C1E6184B5C6C224392
:1097D0005A64BCE6154B1C6B22431A63B7E69FED37
:1097E000148A144BC6F878310023134A06930123D8
:1097F0000393C6F87C21114BF0EE488A0DE69FEDED
:10980000108AEEE70F4A0D4BC6F87C21C6F884316A
:10981000002052E70B68FFDE000401400000014019
:1098200000400140004401400095BA0A003802405F
:109830006F12833A6DC804087DCB030861C8040821
:1098400000000000A1C9030838B5044600680D46B1
:109850000CF032FF094AB2FBF5F1204689B23CF028
:10986000EDFE0749074BC1F8C83C20460022BDE881
:10987000384001F6C8413CF061BE00BF804A5D053A
:10988000202F00206141020808B5034A0623F72172
:1098900044F0C4FD012008BD442F00200378022BB2
:1098A00003D13122742144F01FBD704708B5012354
:1098B00080F8443072B6114AD2F8D83C002B07DD4C
:1098C00062B672B60E4B5B681B0513D462B608BD58
:1098D0000133012BC2F8D83CF2D0D2F8D00C036887
:1098E000C2F8D03C002102F54D625A60816209F055
:1098F000F1F9E5E7BDE8084009F0D0BA202F0020D3
:1099000000ED00E02DE9F04F074C85B094F8DC3C09
:109910000026CDE901660396009613B994F8DD3C64
:1099200023B905B0BDE8F08F202F00207E2115223D
:109930000546DFF81C8344F0D7FCC4484FF0640CA4
:109940004FF0100E4FF47A714FF00109D8F804303F
:10995000C3F30803002B40F01F84EFF31183002BA7
:1099600040F01A84D4F8E42C8768D4F8E43C9A4296
:10997000F8D1D4F8EC3C9F42F4D8BA46D4F8E87C4D
:1099800001FB07F3A3EB0A03B3FBF7F301FB02327E
:10999000D8F80430C3F30803002B40F0DC83EFF366
:1099A0001183002B40F0D783D4F8E43CD0F808B002
:1099B000D4F8E47CBB42F7D1D4F8EC7CBB45F3D8B7
:1099C000D4F8E8AC01FB0AF7A7EB0B07B7FBFAF7F3
:1099D00001FB03739B1AB3F57A7FD9D3BCF1010C59
:1099E000B4D17E211122284644F07EFCDFF860824B
:1099F00096484FF0050C4FF0100E4FF47A714FF06F
:109A00000109D8F80430C3F30803002B40F0838326
:109A1000EFF31183002B40F07E83D4F8E42C8768A9
:109A2000D4F8E43C9A42F8D1D4F8EC3C9F42F4D804
:109A3000BA46D4F8E87C01FB07F3A3EB0A03B3FBB7
:109A4000F7F301FB0232D8F80430C3F30803002B0C
:109A500040F04083EFF31183002B40F03B83D4F8B8
:109A6000E43CD0F808B0D4F8E47CBB42F7D1D4F899
:109A7000EC7CBB45F3D8D4F8E8AC01FB0AF7A7EBC4
:109A80000B07B7FBFAF701FB03739B1AB3F57A7F59
:109A9000D9D3BCF1010CB4D1AB6813B11A689B885F
:109AA00053836868828940F2E9330289013B12F0EE
:109AB000020F9BB200F00A838323838140F2E933D3
:109AC0000289013B12F0010F9BB200F0F8828389FA
:109AD000838940F2E9330289013B12F0020F9BB205
:109AE00000F0E682FF23838140F2E9330289013BE3
:109AF00012F0010F9BB200F0D4828389DBB2009395
:109B000003899B07FCD503891F06F9D4AB6813B101
:109B10001A689B881383009B03F03C03142B7FF48B
:109B200000AF2B224021284644F0DEFB484B5B6807
:109B3000C3F30803002B40F05083EFF31183002B95
:109B400040F04B834149D4F8E40C8B68D4F8E42C02
:109B50009042F8D1D4F8EC2C9342F4D8D4F8E87CB5
:109B60004FF47A7101FB07F2D31AB3FBF7F301FB51
:109B70000030DFF8DCE0354F4FF47A714FF0100C15
:109B80004FF00108DEF80430C3F30803002B40F067
:109B90008883EFF31183002B40F08383D4F8E43CF7
:109BA000D7F808A0D4F8E42C9342F7D1D4F8EC2CE1
:109BB0009245F3D8D4F8E89C01FB09F2A2EB0A0223
:109BC000B2FBF9F201FB03231B1AB3F57A7FD9D359
:109BD0002D224221284644F087FB1D4B5B68C3F3CE
:109BE0000803002B40F0AA84EFF31183002B40F010
:109BF000A5841649D4F8E40C8B68D4F8E42C904280
:109C0000F8D1D4F8EC2C9342F4D8D4F8E87C4FF493
:109C10007A7101FB07F2D31AB3FBF7F301FB0030B3
:109C2000DFF82CE0094F4FF47A714FF0100C4FF031
:109C30000108DEF80430C3F30803002B40F07A83F8
:109C4000EFF31183002B40F0758303E010E000E098
:109C500000ED00E0D4F8E43CD7F808A0D4F8E42CF8
:109C60009342F7D1D4F8EC2C9245F3D8D4F8E89C81
:109C700001FB09F2A2EB0A02B2FBF9F201FB03239A
:109C80001B1AB3F57A7FD4D308224121284644F029
:109C90002BFBC04B5B68C3F30803002B40F0E88349
:109CA000EFF31183002B40F0E383BB49D4F8E40CBD
:109CB0008B68D4F8E42C9042F8D1D4F8EC2C934281
:109CC000F4D8D4F8E87C4FF47A7101FB07F2D31A88
:109CD000B3FBF7F301FB0030DFF8B8E2AE4F4FF40F
:109CE0007A714FF0100C4FF00108DEF80430C3F326
:109CF0000803002B40F0F682EFF31183002B40F0B5
:109D0000F182D4F8E43CD7F808A0D4F8E42C9342CC
:109D1000F7D1D4F8EC2C9245F3D8D4F8E89C01FBA9
:109D200009F2A2EB0A02B2FBF9F201FB03231B1AB0
:109D3000B3F57A7FD9D300224321284644F0D4FAE0
:109D4000944B5B68C3F30803002B40F01A84EFF3D5
:109D50001183002B40F015848F49D4F8E42C8B68D4
:109D6000D4F8E40C9042F8D1D4F8EC2C9A42F4D315
:109D7000D4F8E87C4FF47A7101FB07F2D31AB3FBF5
:109D8000F7F301FB0030DFF80CE2834F4FF47A71F8
:109D90004FF0100C4FF00108DEF80430C3F3080355
:109DA000002B40F02283EFF31183002B40F01D8342
:109DB000D4F8E43CD7F808A0D4F8E42C9342F7D1C7
:109DC000D4F8EC2C9245F3D8D4F8E89C01FB09F2C6
:109DD000A2EB0A02B2FBF9F201FB03231B1AB3F553
:109DE0007A7FD9D3AB6813B11A689B8853836868AC
:109DF000828940F2E9330289013B12F0020F9BB2E3
:109E000000F0EF82F723838140F2E9330289013BBE
:109E100012F0010F9BB200F0DD828389838940F24A
:109E2000E9330289013B12F0020F9BB200F0CB82B2
:109E3000FF23838140F2E9330289013B12F0010FD5
:109E40009BB200F0B9828689F6B203899B07FCD5E4
:109E500003891F06F9D4AB6813B11A689B88138372
:109E600046F0C0027721284644F03EFA10225121E4
:109E7000284644F039FA474B5B68C3F30803002BCC
:109E800040F0D482EFF31183002B40F0CF8242499F
:109E9000D4F8E40C8B68D4F8E42C9042F8D1D4F8D0
:109EA000EC2C9A42F4D3D4F8E86C4FF47A7101FBAD
:109EB00006F2D31AB3FBF6F301FB0030DFF8D4C08F
:109EC000354E4FF47A7110274FF0010EDCF8043054
:109ED000C3F30803002B40F04E82EFF31183002BF5
:109EE00040F04982D4F8E42CD6F80890D4F8E43C49
:109EF0009342F7D1D4F8EC2C4A45F3D3D4F8E88C4C
:109F000001FB08F2A2EB0902B2FBF8F201FB03230A
:109F10001B1AB3F57A7FD9D30A225321284644F07D
:109F2000E3F91C4B5B68C3F30803002B40F0C282CB
:109F3000EFF31183002B40F0BD821749D4F8E42CD5
:109F40008B68D4F8E40C9042F8D1D4F8EC2C93420E
:109F5000F4D8D4F8E86C4FF47A7101FB06F2D31A06
:109F6000B3FBF6F301FB0030DFF828C00A4E4FF4D4
:109F70007A7110274FF0010EDCF80430C3F30803A8
:109F8000002B40F04C81EFF31183002B40F0478110
:109F900004E000BF00ED00E010E000E0D4F8E42CA5
:109FA000D6F80890D4F8E43C9342F7D1D4F8EC2CDE
:109FB0009145F3D8D4F8E88C01FB08F2A2EB090232
:109FC000B2FBF8F201FB03231B1AB3F57A7FD3D35C
:109FD00080225621284644F087F9D34B5B68C3F3AF
:109FE0000803002B40F08882EFF31183002B40F030
:109FF0008382CE49D4F8E42C8B68D4F8E40C9042E8
:10A00000F8D1D4F8EC2C9342F4D8D4F8E86C4FF49F
:10A010007A7101FB06F2D31AB3FBF6F301FB0030B1
:10A02000DFF804C3C14E4FF47A7110274FF0010ED0
:10A03000DCF80430C3F30803002B40F01181EFF388
:10A040001183002B40F00C81D4F8E43CD6F8089042
:10A05000D4F8E42C9342F7D1D4F8EC2C4A45F3D34E
:10A06000D4F8E88C01FB08F2A2EB0902B2FBF8F28B
:10A0700001FB03231B1AB3F57A7FD9D3AC4B94F8B9
:10A080003D20C4F8D03CC4F8D43C0123C4F8D83CEB
:10A09000002A40F09982012384F8DC3C05B0BDE839
:10A0A000F08F002B7FF422AD44F002F9686827E5B9
:10A0B000002B7FF410AD44F0FBF8686820E5002B1E
:10A0C0007FF4FEAC44F0F4F8686801E5002B7FF4FF
:10A0D000ECACF7E7EFF3118A8EF31288D0F808B0F2
:10A0E0000368DF0344BFC4F8E09CD0F808B0D4F89C
:10A0F000E43CD4F8E07C5FFA8AFA8AF31188D4F859
:10A10000E8AC3B4401FB0AF7A7EB0B07B7FBFAF7F8
:10A1100001FB0373B9E4EFF311878EF31288D0F8D3
:10A1200008A00368DB0344BFC4F8E09CD0F808A093
:10A13000D4F8E43CD4F8E02CFFB287F31188D4F8CB
:10A14000E87C1A4401FB07F3A3EB0A03B3FBF7F324
:10A1500001FB023277E4EFF3118A8EF31288D0F814
:10A1600008B00368DF0344BFC4F8E09CD0F808B02F
:10A17000D4F8E43CD4F8E07C5FFA8AFA8AF31188D8
:10A18000D4F8E8AC3B4401FB0AF7A7EB0B07B7FB9D
:10A19000FAF701FB03731DE4EFF311878EF31288C6
:10A1A000D0F808A00368DB0344BFC4F8E09CD0F8F3
:10A1B00008A0D4F8E43CD4F8E02CFFB287F311886F
:10A1C000D4F8E87C1A4401FB07F3A3EB0A03B3FBC2
:10A1D000F7F301FB0232FFF7DBBBEFF31182102331
:10A1E00083F3128851498F680B68D80303D5012384
:10A1F000C4F8E03C8F68D4F8E43CD4F8E00CD2B268
:10A2000082F31188D4F8E81C4FF47A72184402FBE8
:10A2100001F3DB1BB3FBF1F302FB0030A9E4EFF326
:10A22000118887F31288D6F808903368DB0303D5CA
:10A23000C4F8E0ECD6F80890D4F8E42CD4F8E03C6C
:10A240005FFA88F888F31188D4F8E88C134401FB8E
:10A2500008F2A2EB0902B2FBF8F201FB0323B3E61A
:10A26000EFF3118887F31288D6F808903368DB0380
:10A2700003D5C4F8E0ECD6F80890D4F8E42CD4F870
:10A28000E03C5FFA88F888F31188D4F8E88C13442E
:10A2900001FB08F2A2EB0902B2FBF8F201FB032377
:10A2A000E8E6EFF311898CF31288D7F808A03B6831
:10A2B000DB0303D5C4F8E08CD7F808A0D4F8E43C5D
:10A2C000D4F8E02C5FFA89F989F31188D4F8E89C76
:10A2D000134401FB09F2A2EB0A02B2FBF9F201FB03
:10A2E000032371E4EFF311898CF31288D7F808A0E7
:10A2F0003B68DB0303D5C4F8E08CD7F808A0D4F89A
:10A30000E43CD4F8E02C5FFA89F989F31188D4F899
:10A31000E89C134401FB09F2A2EB0A02B2FBF9F23A
:10A3200001FB032303E500BF00ED00E010E000E0C7
:10A33000F03B0020EFF311898CF31288D7F808A0C6
:10A340003B68DB0303D5C4F8E08CD7F808A0D4F849
:10A35000E43CD4F8E02C5FFA89F989F31188D4F849
:10A36000E89C134401FB09F2A2EB0A02B2FBF9F2EA
:10A3700001FB032384E4EFF3118887F31288D6F8F6
:10A3800008903368DB0303D5C4F8E0ECD6F80890F6
:10A39000D4F8E42CD4F8E03C5FFA88F888F311880C
:10A3A000D4F8E88C134401FB08F2A2EB0902B2FBDB
:10A3B000F8F201FB0323ABE5002B7FF43DAD43F046
:10A3C00077FF686841E5002B7FF42BAD43F070FF09
:10A3D00068683AE5002B7FF419AD43F069FF6868BF
:10A3E0001CE5002B7FF407ADF7E7EFF311898CF341
:10A3F0001288D7F808A03B68DA0303D5C4F8E08CCC
:10A40000D7F808A0D4F8E43CD4F8E02C5FFA89F936
:10A4100089F31188D4F8E89C134401FB09F2A2EBFC
:10A420000A02B2FBF9F201FB0323D7E4EFF3118236
:10A43000102383F31288BA498E680B68D80303D5BA
:10A440000123C4F8E03C8E68D4F8E43CD4F8E00C76
:10A45000D2B282F31188D4F8E81C4FF47A7218440F
:10A4600002FB01F39B1BB3FBF1F302FB003025E57C
:10A47000EFF31182102383F31288A9498F680B68C8
:10A48000D80303D50123C4F8E03C8F68D4F8E43C3A
:10A49000D4F8E00CD2B282F31188D4F8E81C4FF45F
:10A4A0007A72184402FB01F3DB1BB3FBF1F302FBEE
:10A4B000003011E4EFF31182102383F312889849DE
:10A4C0008E680B68D80303D50123C4F8E03C8E687E
:10A4D000D4F8E43CD4F8E00CD2B282F31188D4F87A
:10A4E000E81C4FF47A72184402FB01F39B1BB3FB88
:10A4F000F1F302FB003037E5EFF31182102383F311
:10A50000128887498E680B68D80303D50123C4F8E5
:10A51000E03C8E68D4F8E43CD4F8E00CD2B282F38C
:10A520001188D4F8E81C4FF47A72184402FB01F346
:10A530009B1BB3FBF1F302FB003071E5EFF31182DB
:10A54000102383F3128876498F680B68D80303D5EC
:10A550000123C4F8E03C8F68D4F8E43CD4F8E00C64
:10A56000D2B282F31188D4F8E81C4FF47A721844FE
:10A5700002FB01F3DB1BB3FBF1F302FB0030FFF73F
:10A580004FBBEFF31182102383F3128864498F6865
:10A590000B68D80303D50123C4F8E03C8F68D4F8D6
:10A5A000E43CD4F8E00CD2B282F31188D4F8E81C71
:10A5B0004FF47A72184402FB01F3DB1BB3FBF1F397
:10A5C00002FB0030FFF7DFBB7D226921284643F004
:10A5D0008BFEC82603227E21284643F085FE504F7D
:10A5E0000096029EAB6813B11A689B885383686813
:10A5F000828940F2E9330289013B12F0020F9BB2DB
:10A6000000F0E8809B23838140F2E9330289013B1B
:10A6100012F0010F9BB200F0D6808389838940F24B
:10A62000E9330289013B12F0020F9BB200F0C480B3
:10A63000FF23838140F2E9330289013B12F0010FCD
:10A640009BB200F0B2808689F6B203899A07FCD5E6
:10A6500003891B06F9D4AA6812B11368918819837B
:10A66000310700F1BE80DFF8BC904FF00A0C4FF0CC
:10A6700010084FF47A714FF0010ED9F80430C3F38B
:10A680000803002B71D1EFF31183002B6DD1D4F8A7
:10A69000E42CB868D4F8E43C9A42F8D1D4F8EC3C05
:10A6A0009842F4D88246D4F8E80C01FB00F3A3EBFF
:10A6B0000A03B3FBF0F301FB0232D9F80430C3F311
:10A6C00008038BBBEFF3118373BBD4F8E43CD7F8DA
:10A6D00008B0D4F8E40C8342F7D1D4F8EC0C8345ED
:10A6E000F3D8D4F8E8AC01FB0AF0A0EB0B00B0FB08
:10A6F000FAF001FB03039B1AB3F57A7FDDD3BCF1BB
:10A70000010CBAD1009B013B00937FF46BAF4FF675
:10A71000FD730022E38784F83D204CF03FFCBAE44F
:10A7200010E000E000ED00E0EFF3118A88F31288FA
:10A73000D7F808B03B68D80344BFC4F8E0ECD7F8BA
:10A7400008B0D4F8E43CD4F8E00C5FFA8AFA8AF353
:10A750001188D4F8E8AC034401FB0AF0A0EB0B002D
:10A76000B0FBFAF001FB0303C5E7EFF3118088F3B8
:10A770001288D7F808A03B68DB0344BFC4F8E0ECBC
:10A78000D7F808A0D4F8E43CD4F8E02CC0B280F3A9
:10A790001188D4F8E80C1A4401FB00F3A3EB0A0378
:10A7A000B3FBF0F301FB023287E7002B7FF444AFE9
:10A7B00043F07EFD686848E7002B7FF432AF43F03A
:10A7C00077FD686841E7002B7FF420AF43F070FD10
:10A7D000686823E7002B7FF40EAF43F069FD6868DB
:10A7E0001CE712B1136892885A83838940F2E933D7
:10A7F0000289013B12F0020F9BB200F03281EA2382
:10A80000838140F2E9330289013B12F0010F9BB2D0
:10A8100000F02E818389838940F2E9330289013B6C
:10A8200012F0020F9BB200F02781FF23838140F2D8
:10A83000E9330289013B12F0010F9BB200F0238142
:10A840008389DBB2019303899907FCD503891A0632
:10A85000F9D4AB6813B11A689B881383019B8C4FA2
:10A8600043F002026A21284643F03EFD3226A02230
:10A870007E21284643F038FD0096039EAB6813B155
:10A880001A689B8853836868828940F2E933028999
:10A89000013B12F0020F9BB200F0DF809B2383810B
:10A8A00040F2E9330289013B12F0010F9BB200F044
:10A8B000CD808389838940F2E9330289013B12F01C
:10A8C000020F9BB200F0BB80FF23838140F2E9338B
:10A8D0000289013B12F0010F9BB200F0A98086892A
:10A8E000F6B203899B07FCD5038913F08003F8D1E6
:10A8F000AA6812B1116892880A83F1063FF509AF80
:10A90000DFF890914FF00A0C4FF010084FF47A7175
:10A910004FF0010ED9F80430C3F30803002B67D1C0
:10A92000EFF31183002B63D1D4F8E42CB868D4F88A
:10A93000E43C9A42F8D1D4F8EC3C9842F4D88246F0
:10A94000D4F8E80C01FB00F3A3EB0A03B3FBF0F32C
:10A9500001FB0232D9F80430C3F308033BBBEFF329
:10A96000118323BBD4F8E43CD7F808B0D4F8E40C46
:10A970008342F7D1D4F8EC0C8345F3D8D4F8E8AC93
:10A9800001FB0AF0A0EB0B00B0FBFAF001FB0303A4
:10A990009B1AB3F57A7FDDD3BCF1010CBAD1009BD1
:10A9A000013B00937FF46AAF4FF6FA73B1E6EFF321
:10A9B000118A88F31288D7F808B03B68DB0344BFDC
:10A9C000C4F8E0ECD7F808B0D4F8E43CD4F8E00CD4
:10A9D0005FFA8AFA8AF31188D4F8E8AC034401FBE1
:10A9E0000AF0A0EB0B00B0FBFAF001FB0303CFE78A
:10A9F000EFF3118088F31288D7F808A03B68DA03D8
:10AA000044BFC4F8E0ECD7F808A0D4F8E43CD4F88C
:10AA1000E02CC0B280F31188D4F8E80C1A4401FB92
:10AA200000F3A3EB0A03B3FBF0F301FB023291E75F
:10AA3000002B7FF44DAF43F03BFC686851E7002BDF
:10AA40007FF43BAF43F034FC68684AE7002B7FF4A7
:10AA500029AF43F02DFC68682CE7002B7FF417AF7B
:10AA6000F7E7002B7FF4C4AE43F022FC6868D2E61F
:10AA7000002B7FF4C8AEF7E7002B7FF4CFAE43F096
:10AA800017FC6868DFE6002B7FF4D3AEF7E700BF62
:10AA900010E000E000ED00E010B504460C30FEF7D9
:10AAA00031FF4FF48053238310BD00BF2DE9F043E5
:10AAB000044683B01030FEF725FF94F8550010B916
:10AAC00003B0BDE8F0830509013D032D00F00F0040
:10AAD00000F29D804F4E06EB4503B3F8E82042FAA2
:10AAE00000F3DB0740F19380012303FA00F0013803
:10AAF0001040354450F07CFD474F95F8F0804749B1
:10AB0000804407F5377909EBC8052622AB88EA802F
:10AB1000B3FA83F3202BC3F11F02E160D0D007EB1F
:10AB200082030C343244C3F818410021284692F8BD
:10AB3000284043F031F8A98859F838203848B1FA4C
:10AB400081F1C1F11F0303F0FC0C0CF1804C0CF5FA
:10AB50009C3C03F00303DCF808804FEA830E4FF0BF
:10AB60000F0909FA0EF902F13F4328EA0902CCF86D
:10AB7000082003F57E03DCF80820C3F3872303FADB
:10AB80000EF34FF00048134328FA01F2CCF80830D6
:10AB900042610368234923EA02030360436823EA0E
:10ABA00002034360036813430360836823EA0203DC
:10ABB0008360C36823EA0203C3600B68274413431E
:10ABC0000B6097F85831F02B09D8002A3FF478AF82
:10ABD00013490B681A430A6003B0BDE8F0832644AA
:10ABE000032296F844308DF80430F0214FF480733E
:10ABF00001A88DF8052087F85811ADF806300BF044
:10AC000013FDAA88B2FA82F228FA02F2DDE7034BBA
